{
  "contractName": "Purchase",
  "abi": [
    {
      "constant": true,
      "inputs": [
        {
          "internalType": "uint256",
          "name": "",
          "type": "uint256"
        }
      ],
      "name": "consumers",
      "outputs": [
        {
          "internalType": "address",
          "name": "",
          "type": "address"
        }
      ],
      "payable": false,
      "stateMutability": "view",
      "type": "function"
    },
    {
      "constant": false,
      "inputs": [
        {
          "internalType": "uint256",
          "name": "grocerieId",
          "type": "uint256"
        }
      ],
      "name": "buy",
      "outputs": [
        {
          "internalType": "uint256",
          "name": "",
          "type": "uint256"
        }
      ],
      "payable": false,
      "stateMutability": "nonpayable",
      "type": "function"
    },
    {
      "constant": true,
      "inputs": [],
      "name": "getConsumers",
      "outputs": [
        {
          "internalType": "address[16]",
          "name": "",
          "type": "address[16]"
        }
      ],
      "payable": false,
      "stateMutability": "view",
      "type": "function"
    }
  ],
  "bytecode": "0x608060405234801561001057600080fd5b506102b9806100206000396000f3fe608060405234801561001057600080fd5b50600436106100415760003560e01c80633b729b86146100465780634651ed3d1461008c578063d96a094a146100fa575b600080fd5b61004e61013c565b6040518082601060200280838360005b8381101561007957808201518184015260208101905061005e565b5050505090500191505060405180910390f35b6100b8600480360360208110156100a257600080fd5b81019080803590602001909291905050506101bd565b604051808273ffffffffffffffffffffffffffffffffffffffff1673ffffffffffffffffffffffffffffffffffffffff16815260200191505060405180910390f35b6101266004803603602081101561011057600080fd5b81019080803590602001909291905050506101f0565b6040518082815260200191505060405180910390f35b610144610261565b60006010806020026040519081016040528092919082601080156101b3576020028201915b8160009054906101000a900473ffffffffffffffffffffffffffffffffffffffff1673ffffffffffffffffffffffffffffffffffffffff1681526020019060010190808311610169575b5050505050905090565b600081601081106101ca57fe5b016000915054906101000a900473ffffffffffffffffffffffffffffffffffffffff1681565b60008082101580156102035750600f8211155b61020c57600080fd5b336000836010811061021a57fe5b0160006101000a81548173ffffffffffffffffffffffffffffffffffffffff021916908373ffffffffffffffffffffffffffffffffffffffff160217905550819050919050565b60405180610200016040528060109060208202803883398082019150509050509056fea265627a7a723158206939f30e2edcfbab0e705e2c51f0cd9157373bbab65958693ca69ebc0ee732c164736f6c63430005100032",
  "source": "pragma solidity ^0.5.0;\n\ncontract Purchase {\n    address[16] public consumers;\n\n    // purchase a grocerie\n    function buy(uint grocerieId) public returns (uint) {\n        require(grocerieId >= 0 && grocerieId <= 15);\n\n        consumers[grocerieId] = msg.sender;\n\n        return grocerieId;\n    }\n\n    // Retrieving the consumers\n    function getConsumers() public view returns (address[16] memory) {\n        return consumers;\n    }\n\n}",
  "sourcePath": "/home/dpe10952/Documentos/oficina3/farmer-shop/contracts/Purchase.sol",
  "compiler": {
    "name": "solc",
    "version": "0.5.16+commit.9c3226ce.Emscripten.clang"
  },
  "schemaVersion": "3.4.2",
  "updatedAt": "2021-07-29T05:23:36.924Z",
  "networkType": "ethereum",
  "devdoc": {
    "methods": {}
  },
  "userdoc": {
    "methods": {}
  }
}